:100000000A128A11E62F00308A000408840A820747
:0800100000344F344634003483
:1006C0008316031306083F388600080083160313B9
:1006D0009F17831203131F14080064008001840A0B
:1006E00004060319003404066E2B0A128A11B22381
:1006F0000A128A1183160313111408000A128A11B0
:10070000B2230A128A118316031311150800F6008A
:10071000CB30F40076080A128A11F2240A128A11E8
:1007200008000A128A117E230A128A110A128A11FB
:1007300075230A128A110800F0000A128A11B223E6
:100740000A128A117008831203139300080083169B
:1007500003138801091189100A128A1169260A12E5
:100760008A110800831603131419B72BB82BB22B68
:1007700011081F39031DBD2BBE2BB22B08000A1216
:100780008A1118260A128A11C030F40048300A1261
:100790008A11F2240A128A110800F900F00178087F
:1007A0000A128A11D2240A128A11F001F00A790879
:1007B0000A128A11D2240A128A1108008312031322
:1007C0001F151F19E42BE52BE12B1E08F3008316E0
:1007D00003131E08F2007308F1007208F00008000D
:1007E00020342034543449344D34453420342034BA
:1007F00020342034203445342034203453345034D1
:100800000034013400300A128A1181250A128A113B
:10081000F40074087F39F4007408F10000300A1203
:100820008A1177240A128A1108007E088A007F083C
:1008300082000A128A1115240A128A118000840A81
:1008400004087D0603190034FF0A0319FE0A192C57
:100850000A128A11DE230A128A1171088312031305
:10086000D2007008D10001300A128A1157250A12ED
:100870008A1183120313C700080083120313C300F5
:100880000A128A1159240A128A110A128A11BF23E4
:100890000A128A118312031343080A128A1187234A
:1008A0000A128A117D080A128A11DE250A128A119B
:1008B0000800323084002030F6000408F7001130C0
:1008C000F8007608840083130008F900F60A770818
:1008D000840079088000F70AF80B612C8030F4005E
:1008E00032300A128A11F2240A128A110800F20028
:1008F0000A128A1175230A128A11D0300A128A113B
:100900009C230A128A1172080A128A119C230A1265
:100910008A1171080A128A119C230A128A110A127A
:100920008A117E230A128A1108000A128A113325BD
:100930000A128A110130F00053300A128A11B324CE
:100940000A128A110A128A1128240A128A115130B5
:10095000FD0053300A128A113D240A128A11A22C7A
:100960000A128A110028F1007108F200BF2C013030
:10097000FF007F08F2070130FF007F08F0077008D2
:1009800084000A128A1103200A128A11FF007208D9
:1009900084007F08831380000008031DD02CD12C15
:1009A000B72C0800F3007018D62CDA2C831203132E
:1009B0000915DD2C831203130911730888008914AB
:1009C000A630F100F10BE22C000083120313891012
:1009D0001B30F2009E30F100F10BEC2CF20BEC2CF2
:1009E00000000800F500F00174080A128A11D224F0
:1009F0000A128A11092DF001F00A75088400000816
:100A00000A128A11D2240A128A110130FF007F08CB
:100A1000F5077508840083130008031D102D112DA0
:100A2000FB2C0800F0000A128A11B2230A128A1164
:100A30008316031391150A128A11B2230A128A111E
:100A4000831203131308F1007003031D282D292DB1
:100A50002D2D831603139116302D83160313911237
:100A60001116710808000A128A1166230A128A11E7
:100A70000A128A11A7230A128A110A128A11602304
:100A80000A128A11003083120313B5000130B4003A
:100A90008630B300A030B2000A128A11AC250A12C7
:100AA0008A110A128A1102240A128A110800F1001E
:100AB0007108031D5C2D5D2D622D83120313060842
:100AC0003F39802D3F30831203130605F0003F307D
:100AD000700603196C2D6D2D742D31080319712DBD
:100AE000722D742DB1015D2D3F300605F0003F30B1
:100AF0007006031D7C2D7D2D7F2DB101B10A3F3085
:100B00000800F2000A128A1175230A128A11D030E5
:100B10000A128A119C230A128A1172080A128A1177
:100B20009C230A128A110A128A1191230A128A112D
:100B3000D1300A128A119C230A128A1100300A123B
:100B40008A1112250A128A11F3000A128A117E23D1
:100B50000A128A11730808008312031394153208CD
:100B6000B6003308B7003408B8003508B9000230C1
:100B70000310B60DB70DB80DB90DFF3E031DB82D0E
:100B80003908F3003808F2003708F1003608F000A1
:100B90000130F7003130F6002D30F5000030F40060
:100BA0000A128A1119270A128A117008FF3E831649
:100BB000031393008312031394160800FC00CE3035
:100BC000F8000A30F0000030F1007C088400831344
:100BD0000008FA00FB017A08F2007B08F3000A1211
:100BE0008A117F270A128A117008303E0A128A1170
:100BF000CD230A128A11CF30F8000A30F0000030FD
:100C0000F1007C08840083130008FA00FB017A08D5
:100C1000F2007B08F3000A128A11C0260A128A1118
:100C20007008303E0A128A11CD230A128A11080078
:100C300002300A128A1181250A128A1183120313C3
:100C4000C40001300A128A1181250A128A11831206
:100C50000313C50000300A128A1181250A128A1175
:100C600083120313C6004408F40004300310F40C8C
:100C7000FF3E031D362E74080F39303EC80044086D
:100C80000F39303EC9003A30CA004508F40004303C
:100C90000310F40CFF3E031D482E74080F39303E3C
:100CA000CB0045080F39303ECC003A30CD00460825
:100CB000F40004300310F40CFF3E031D5A2E740898
:100CC0000F39303ECE0046080F39303ECF00D001FC
:100CD0000800C330F500CD30F400F40B6D2EF50B99
:100CE0006D2EF00133300A128A11D2240A128A11B1
:100CF0001B30F5009E30F400F40B7C2EF50B7C2E9F
:100D00000000F00133300A128A11D2240A128A112B
:100D1000A630F400F40B8A2E0000F00133300A12E2
:100D20008A11D2240A128A11952E962E0000F00103
:100D300038300A128A11D2240A128A11A630F4001D
:100D4000F40BA02E0000F00101300A128A11D22407
:100D50000A128A110430F5003D30F400F40BAE2E77
:100D6000F50BAE2EB32EF0010C300A128A11D224EC
:100D70000A128A11A630F400F40BBC2E0000080001
:100D8000F501F31FC42EC52ECC2EF209F309F20A89
:100D90000319F30AF501F50AF11FCF2ED02ED52E37
:100DA000F009F109F00A0319F10A70087104031936
:100DB000DA2EDB2E0A2FF401F40AE92E013003109B
:100DC000F00DF10DFF3E031DDF2E0130FF007F0807
:100DD000F407F11FEC2EED2EDE2E71087302031DB9
:100DE000F32E70087202031CF62EF72EFD2E7008EB
:100DF000F2027108031CF303F30201300310F10C3B
:100E0000F00CFF3E031DFE2E0130F402031D092FDE
:100E10000A2FED2E750803190E2F0F2F142FF2092C
:100E2000F309F20A0319F30A7308F1007208F000DB
:100E300008000030FC000030FB000030FA000030F9
:100E4000F90073087204710470040319282F292F04
:100E5000762FFD01FD0A392F0130F8000310F00D47
:100E6000F10DF20DF30DF80B2E2F0130FF007F086E
:100E7000FD07F31F3C2F3D2F2C2F0130F8000310EE
:100E8000F90DFA0DFB0DFC0DF80B3F2F73087702DF
:100E9000031D542F72087602031D542F710875022A
:100EA000031D542F70087402031C572F582F672FEF
:100EB0007008F4027108031C710FF5027208031C1C
:100EC000720FF6027308031C730FF70279140130D6
:100ED0000310F30CF20CF10CF00CFF3E031D682F15
:100EE0000130FD02031D752F762F3D2F7C08F30086
:100EF0007B08F2007A08F1007908F0000800F5019B
:100F0000F11F832F842F8B2FF009F109F00A0319A9
:100F1000F10AF501F50AF31F8E2F8F2F982FF20992
:100F2000F309F20A0319F30A0130FF007F08F506FE
:100F3000F601F7017008710403199F2FA02FD72F16
:100F4000F401F40AAE2F01300310F00DF10DFF3E55
:100F5000031DA42F0130FF007F08F407F11FB12FFC
:100F6000B22FA32F01300310F60DF70DFF3E031D26
:100F7000B32F71087302031DBF2F70087202031C88
:100F8000C22FC32FCA2F7008F2027108031CF3038B
:100F9000F302761401300310F10CF00CFF3E031D38
:100FA000CB2F0130F402031DD62FD72FB22F750897
:100FB0000319DB2FDC2FE12FF609F709F60A0319D5
:100FC000F70A7708F1007608F00008008313323042
:100FD000FD000330FE00F030FF00203084000A12D4
:100FE0008A1119240A128A114430840055300A12D9
:100FF0008A116D230A128A1183010A128A11952C13
:02400E00FB3F76
:00000001FF
